:020000040800F2
:100000002004002001010008D30400085503000863
:10001000CF040008490100082B0E00080000000072
:100020000000000000000000000000007D09000842
:10003000E50100080000000065080008950B0008B5
:100040001B0100081B0100081B0100081B01000820
:100050001B0100081B0100081B0100081B01000810
:100060001B0100081B0100081B0100081B01000800
:100070001B0100081B0100081B0100081B010008F0
:100080001B0100081B0100081B0100081B010008E0
:100090001B0100081B0100081B0100081B010008D0
:1000A0001B0100081B0100081B0100081B010008C0
:1000B0001B0100081B0100081B0100081B010008B0
:1000C0001B0100081B0100081B0100081B010008A0
:1000D0001B010008F90B00081B0100081B010008A8
:1000E0001B0100081B0100081B010008DFF80CD0F1
:1000F00000F018F8004800474D0E000820040020CA
:100100000648804706480047FEE7FEE7FEE7FEE7B1
:10011000FEE7FEE7FEE7FEE7FEE7FEE7990B0008D5
:10012000ED000008064C074D06E0E06840F00103D2
:1001300094E8070098471034AC42F6D3FFF7DAFF93
:10014000481500086815000800BFFEE708B5012142
:10015000082000F099FB48208DF803004FF4C050B0
:10016000ADF8000003208DF802006946014800F058
:100170005DF808BD000C014070B5044600250B2C4D
:1001800015D14FF40061164800F0DBF830BB1420A5
:1001900000F029F800BF4FF40061114800F0D1F8D9
:1001A0000028F8D0142000F01EF8012516E00C2CD1
:1001B00014D14FF480510A4800F0C3F870B91420EC
:1001C00000F011F800BF4FF48051054800F0B9F875
:1001D0000028F8D0142000F006F80125284670BD4C
:1001E000000C0140704700B5034603E04FF47A70FD
:1001F00000F005F8181EA3F10103F7D100BD00EBD4
:10020000C001C9004FF0E022516100219161052138
:10021000116100BF4FF0E021096901F4803100292C
:10022000F8D004214FF0E022116170472DE9F04130
:10023000024600250026002000230024002791F814
:1002400003C00CF00F0591F803C00CF0100CBCF1CA
:10025000000F03D091F802C04CEA050591F800C0E8
:10026000BCF1000F31D0146800202BE04FF0010CDE
:100270000CFA00F3B1F800C00CEA03069E4220D14C
:1002800083004FF00F0C0CFA03F7BC4305FA03FC94
:100290004CEA040491F803C0BCF1280F06D14FF0DA
:1002A000010C0CFA00FCC2F814C00AE091F803C07B
:1002B000BCF1480F05D14FF0010C0CFA00FCC2F85C
:1002C00010C0401C0828D1D31460B1F800C0BCF1A4
:1002D000FF0F34DD546800202EE000F1080C4FF0D1
:1002E000010808FA0CF3B1F800C00CEA03069E42BC
:1002F00021D183004FF00F0C0CFA03F7BC4305FA31
:1003000003FC4CEA040491F803C0BCF1280F05D1AA
:1003100000F1080C08FA0CF8C2F8148091F803C038
:10032000BCF1480F07D100F1080C4FF0010808FAA2
:100330000CF8C2F81080401C0828CED35460BDE8E9
:10034000F0810246002093680B400BB1012000E0D1
:100350000020704700BFFEE770B50246002400256C
:1003600000230020958A138B1B0445EA030626F020
:100370007F4404EA01068E4201D1012000E0002002
:1003800070BD21B1028842F00102028004E00288BF
:100390004FF6FE731A400280704721B1028842F482
:1003A0008072028004E002884FF6FF631A400280E8
:1003B000704721B1028842F40072028004E0028892
:1003C0004FF6FF531A400280704700002DE9F043BA
:1003D00085B004460D460026B1460427DFF8CC80E0
:1003E000A6884FF6C0700640684600F05DFADDF85A
:1003F00008802F48B8FBF0F01FFA80F946EA09069A
:10040000A68020884FF6FE710840208000262949EA
:10041000286888420CD828684000B8FBF0F087B202
:10042000042F00DA04273E4309F10100208427E06D
:10043000E8884BF6FF71884206D1286800EB40003F
:10044000B8FBF0F087B209E0286800EBC00101EBCF
:100450000010B8FBF0F087B247F48047C7F30B00F9
:1004600008B947F0010747F4004006434FF496707F
:1004700009FB00F04FF47A7190FBF1F0401C2084EE
:10048000A683208840F00100208026884FF6F530B2
:100490000640A8886989084306432680A8892989D7
:1004A0000843208105B0BDE8F083000000127A0007
:1004B00040420F00A086010012B141F0010102E0AC
:1004C0004FF6FE731940018270470182704700BFEA
:1004D000FEE7704770B5002100230F22C47804B3F3
:1004E000154C246804F4E064C4F5E064210AC1F109
:1004F0000403CA40447804FA03F184781440214389
:1005000009010E4C0678A155047804F01F0501245A
:10051000AC4005786D11AD0005F1E025C5F800414E
:1005200009E0047804F01F050124AC40044D06786E
:10053000761145F8264070BD0CED00E000E400E0C7
:1005400080E100E002490143024A11607047000067
:100550000000FA050CED00E070B500240EE000216B
:10056000204600F0E8F8002504E0002000F073F9D0
:10057000681CC5B2802DF8DB601CC4B2082CEEDB11
:1005800070BD000000B585B00121082000F07CF9A5
:100590001C208DF81300C020ADF8100003208DF84A
:1005A000120004A91148FFF741FE0121480500F09F
:1005B0005BF94FF48060ADF80A000001ADF80C0063
:1005C0000B4800904BF6FF70ADF806000020ADF828
:1005D0000400ADF8080069460648FFF7F7FE012160
:1005E0000448FFF7CEFE05B000BD0000000C01403E
:1005F000A08601000054004070B504460D4601215C
:100600001948FFF7CAFE00BF18491748FFF7A4FEB4
:100610000128F9D1002278211348FFF74DFF00BFD0
:1006200013491148FFF798FE0128F9D121460E48D9
:10063000FFF74BFF00BF0E49891C0B48FFF78CFEEC
:100640000128F8D129460848FFF73FFF00BF0849B5
:10065000891C0548FFF780FE0128F8D101210248D6
:10066000FFF7A7FE70BD000000540040010003002A
:100670008200070070B5002406E0002500E06D1C34
:10068000B5F57A7FFBD3641CB4F57A7FF5D3FFF719
:1006900079FFAE2000F0D8F8D52000F0D5F8802002
:1006A00000F0D2F8A82000F0CFF83F2000F0CCF8FE
:1006B000D32000F0C9F8002000F0C6F8402000F078
:1006C000C3F8A12000F0C0F8C82000F0BDF8DA207F
:1006D00000F0BAF8122000F0B7F8812000F0B4F86A
:1006E000CF2000F0B1F8D92000F0AEF8F12000F0F2
:1006F000ABF8DB2000F0A8F8302000F0A5F8A4202B
:1007000000F0A2F8A62000F09FF88D2000F09CF8E1
:10071000142000F099F8AF2000F096F8FFF71CFFC6
:1007200070BD10B50246012000E050430B1EA1F140
:100730000101FAD110BD70B505460C4645F0B00078
:1007400000F082F8102141EA141000F07DF804F066
:100750000F0000F079F870BD2DE9F04105460E4616
:100760001746721ED206110E6A1E5206100EFFF7B1
:10077000E2FF002409E0A7F12001134A02EB011176
:10078000085D00F068F8601CC4B2082CF3DB721E30
:10079000D206110E6A1E012303EB4202D0B2FFF70C
:1007A000CAFF00240BE0A7F12001074A02EB011267
:1007B00004F10801505C00F04EF8601CC4B2082C33
:1007C000F1DBBDE8F0810000580F00082DE9F0478B
:1007D00081460E4690461F4600241DE0381B411EF0
:1007E0001020FFF79EFFB8FBF0F000F00F050A2D78
:1007F00008DA05F13000C2B23019C1B24846FFF73D
:10080000ABFF07E005F13700C2B23019C1B248466C
:10081000FFF7A2FF601CC4B2BC42DFDBBDE8F0877B
:100820002DE9F04107460E461546002407E02A5DF3
:100830003019C1B23846FFF78FFF601CC4B2285D83
:100840000028F4D1BDE8F08110B50446214600200F
:10085000FFF7D2FE10BD10B5044621464020FFF739
:10086000CBFE10BD7047000029B1064AD269024391
:10087000044BDA6104E0034AD2698243014BDA6136
:10088000704700000010024029B1064A92690243F5
:10089000044B9A6104E0034A92698243014B9A61D6
:1008A000704700000010024030B5002100220024F3
:1008B00000232D4D6D6805F00C0121B1042905D0F0
:1008C000082923D105E0294D056022E0274D056068
:1008D0001FE0254D6D6805F47012234D6D6805F419
:1008E0008034022505EB92421CB9214D5543056029
:1008F0000BE01D4D6D6805F400351DB11C4D5543D1
:10090000056002E0194D5543056002E0174D056092
:1009100000BF00BF144D6D6805F0F0010909154DC9
:100920006B5C0568DD4045600F4D6D6805F4E06166
:10093000090A104D6B5C4568DD4085600A4D6D68A5
:1009400005F46051C90A0B4D6B5C4568DD40C5601C
:10095000054D6D6805F44041890B074D6B5CC5681A
:10096000B5FBF3F5056130BD0010024000127A00BE
:1009700000093D000000002010000020704700002A
:1009800005480078012804D100200349087001209F
:1009900070470020FCE700001C00002000B587B075
:1009A00001210420FFF770FF01218803FFF76CFF8E
:1009B00018208DF81B004FF40070ADF818000320CC
:1009C0008DF81A0006A92148FFF730FC48208DF861
:1009D0001B004FF48060ADF8180006A91B48FFF714
:1009E00025FC02A800F015FA4FF4165002900020E2
:1009F000ADF814000C20ADF812000020ADF8100086
:100A0000ADF80E00ADF80C0002A9114800F08CF909
:100A1000012240F225510E4800F060F94FF4A06029
:100A2000FFF790FD25208DF8040001208DF80700C8
:100A30008DF805008DF8060001A8FFF74BFD012198
:100A4000034800F032F907B000BD00000008014083
:100A50000038014070B505460E46002404E0285DCC
:100A600000F006F8601C84B2B442F8DB70BD0000F0
:100A700010B504462146054800F0C7F900BF8021A3
:100A8000024800F01EF90128F9D110BD00380140DC
:100A900010B5FF20FFF7ECFF04210348FFF7DAFF52
:100AA000FE20FFF7E5FF10BD1400002010B500F098
:100AB00001F810BD0CB5002001900090334800688B
:100AC00040F480303149086000BF3048006800F4CD
:100AD000003000900198401C0190009818B90198CE
:100AE000B0F5A06FF1D12948006800F4003010B1D2
:100AF0000120009001E0002000900098012843D1DF
:100B00002348006840F0100021490860084600684A
:100B100020F0030008600846006840F0020008600A
:100B20001A484068194948600846406848600846C5
:100B3000406840F4806048600846406820F47C10BB
:100B400048600846406840F4E8104860084600687D
:100B500040F08070086000BF0C48006800F0007032
:100B60000028F9D00948406820F003000749486090
:100B70000846406840F00200486000BF03484068F3
:100B800000F00C000828F9D10CBD00000010024054
:100B9000002002407047000010B51348006840F084
:100BA00001001149086008464068104908400E4994
:100BB0004860084600680E4908400B49086008462E
:100BC000006820F4802008600846406820F4FE0099
:100BD00048604FF41F008860FFF768FF4FF0006027
:100BE0000449086010BD0000001002400000FFF83A
:100BF000FFFFF6FE08ED00E010B540F225511E485B
:100C000000F05FF8012836D11B4800F0F9F8C4B2B3
:100C10001A48007840B9FF2C27D1012017490870E5
:100C200000201749087020E014480078012810D1EE
:100C3000144813490978445411480078401C10495D
:100C400008700846007804280FDB02200B49087062
:100C50000BE00A480078022807D1FE2C05D10120BC
:100C60000949087000200549087040F225510248E2
:100C700000F00CF800BF10BD003801401D0000203E
:100C80001E000020180000201C00002010B50022CB
:100C9000002340F66A14A14200D100BF0A120124C9
:100CA0009440A3B2DC43048010BD21B1828942F498
:100CB0000052828104E082894DF6FF731A408281DE
:100CC000704702460020B1F5007F00D100BF1388B5
:100CD0000B400BB1012000E000207047F0B5034647
:100CE000002400260025002040F66A17B94200D1F2
:100CF00000BF1846C1F3421401F01F06012707FA8E
:100D000006F5012C01D10C3004E0022C01D1103089
:100D100000E014301AB107682F43076002E007684B
:100D2000AF430760F0BD00002DE9F04786B00546EF
:100D30000E460024A24600BFA1460027B08900B19C
:100D400000BF2F462C8A4CF6FF700440F088044305
:100D50002C82AC894EF6F3100440B08831890843E8
:100D6000718908430443AC81AC8A4FF6FF400440CC
:100D7000B0890443AC8201A8FFF796FD1F48874263
:100D800002D1DDF810A001E0DDF80CA0A88900F484
:100D9000004040B10AEBCA0000EB0A10316849007C
:100DA000B0FBF1F807E00AEBCA0000EB0A1031686B
:100DB0008900B0FBF1F86420B8FBF0F004012009D1
:100DC000642101FB1089A88900F4004040B1322061
:100DD00000EBC900B0FBF1F000F00700044308E0AD
:100DE000322000EB09106421B0FBF1F000F00F009D
:100DF00004432C8106B0BDE8F087000000380140B4
:100E000001468888C0F308007047C1F30802828059
:100E100070474FF41651016000218180C18001812B
:100E20000C21418100218181704700BFFEE702E073
:100E300008C8121F08C1002AFAD170477047002065
:100E400001E001C1121F002AFBD17047FFF712FC1D
:100E5000FFF7A4FDFFF77AF936A201210846FFF754
:100E6000DFFC37A201210320FFF7DAFC012037491C
:100E7000087002204870032088700420C87057E072
:100E80000B20FFF779F932490870084600780128ED
:100E90002ED12E480078401C2C4908700846407816
:100EA000401C487008468078401C88700846C0780E
:100EB000401CC870FFF7ECFD244802780223012192
:100EC0001846FFF783FC2148427802230421184684
:100ED000FFF77CFC1D488278022307211846FFF7A4
:100EE00075FC1A48C27802230A211846FFF76EFCE7
:100EF000FFF746FD01281BD1164802780223012185
:100F00000420FFF763FC13484278022304210846BB
:100F1000FFF75CFC0F488278022307210420FFF7CB
:100F200055FC0C48C27802230A210420FFF74EFC2E
:100F3000A6E7000054785061636B65740000000000
:100F400052785061636B657400000000140000204B
:100F50001F0000201800002000000000000000001A
:100F60000000000000000000000000F80000000089
:100F7000000000333000000000100C06100C0600CA
:100F8000000000000000000040C07840C078400031
:100F9000043F04043F040400007088FC0830000093
:100FA000001820FF211E0000F008F000E0180000EB
:100FB00000211C031E211E0000F0088870000000A4
:100FC0001E2123241927211010160E0000000000F6
:100FD0000000000000000000000000E01804020013
:100FE000000000071820400000020418E000000084
:100FF0000040201807000000404080F08040400082
:101000000202010F01020200000000F000000000D7
:101010000101011F010101000000000000000000AB
:1010200080B0700000000000000000000000000020
:1010300000010101010101010000000000000000A9
:101040000030300000000000000000008060180444
:10105000006018060100000000E010080810E00021
:10106000000F102020100F00001010F800000000EA
:101070000020203F20200000007008080888700031
:1010800000302824222130000030088888483000B1
:101090000018202020110E000000C02010F80000D1
:1010A00000070424243F240000F80888880808006A
:1010B0000019212020110E0000E01088881800007F
:1010C000000F112020110E0000380808C838080051
:1010D0000000003F000000000070880808887000D1
:1010E000001C222121221C0000E010080810E00052
:1010F0000000312222110F00000000C0C0000000DB
:1011000000000030300000000000008000000000FF
:1011100000008060000000000000804020100800F7
:1011200000010204081020004040404040404000C0
:10113000040404040404040000081020408000009B
:101140000020100804020100007048080808F000A0
:101150000000003036010000C030C828E810E00070
:101160000718272423140B000000C038E0000000FB
:10117000203C23020227382008F888888870000065
:10118000203F202020110E00C03008080808380039
:10119000071820202010080008F808080810E000B0
:1011A000203F202020100F0008F88888E808100051
:1011B000203F20202320180008F88888E808100025
:1011C000203F200003000000C0300808083800005D
:1011D00007182020221E020008F808000008F8085E
:1011E000203F210101213F20000808F808080000E5
:1011F0000020203F2020000000000808F808080018
:10120000C08080807F00000008F888C0281808008F
:10121000203F20012638200008F8080000000000C8
:10122000203F20202020300008F8F800F8F80800BF
:10123000203F003F003F200008F830C00008F808B9
:10124000203F200007183F00E01008080810E000C9
:101250000F10202020100F0008F808080808F000E0
:10126000203F210101010000E01008080810E00003
:101270000F18242438504F0008F888888888700098
:10128000203F2000030C3020007088080808380038
:101290000038202121221C00180808F8080818002E
:1012A0000000203F2000000008F808000008F808AF
:1012B000001F202020201F000878880000C8380860
:1012C000000007380E010000F80800F80008F800D8
:1012D000033C0700073C0300081868808068180872
:1012E00020302C03032C30200838C800C8380800F0
:1012F0000000203F2000000010080808C83808003F
:101300002038262120201800000000FE02020200E2
:101310000000007F40404000000C30C00000000092
:10132000000000010638C00000020202FE000000BA
:10133000004040407F000000000004020202040060
:10134000000000000000000000000000000000009D
:101350008080808080808080000202040000000085
:10136000000000000000000000008080808000007D
:101370000019242222223F2008F80080800000006B
:10138000003F112020110E0000000080808000002E
:10139000000E112020201100000000808088F8003D
:1013A000000E112020103F2000008080808000006F
:1013B000001F222222221300008080F088888818D3
:1013C0000020203F202000000000808080808000DE
:1013D000006B94949493600008F800808080000073
:1013E000203F210000203F2000809898000000004E
:1013F0000020203F2020000000000080989800007E
:1014000000C08080807F000008F80000808080009D
:10141000203F24022D302000000808F800000000C2
:101420000020203F2020000080808080808080007D
:10143000203F20003F20003F80800080808000000F
:10144000203F210000203F2000008080808000009D
:10145000001F202020201F008080008080000000CE
:1014600080FFA12020110E000000008080808000FD
:10147000000E112020A0FF808080800080808000EE
:1014800020203F212000010000008080808080001B
:101490000033242424241900008080E08080000090
:1014A0000000001F202000008080000000808000DD
:1014B000001F202020103F2080808000008080803E
:1014C00000010E30080601008080008000808080CE
:1014D0000F300C030C300F000080800080808000F3
:1014E0000020312E0E31200080808000008080801E
:1014F00080818E70180601000080808080808000CE
:101500000021302C2221300000000000807C0202EB
:1015100000000000003F404000000000FF0000000D
:1015200000000000FF0000000002027C80000000BC
:101530000040403F000000000006010102020404D8
:1015400000000000000000006815000800000020F6
:10155000200000002E0E0008881500082000002042
:10156000000400003E0E0008000000000102030419
:10157000010203040607080902040608000000002F
:08158000000000000000000063
:04000005080000ED02
:00000001FF
