:020000040800F2
:100000001804002001010008E3030008650200084D
:10001000DF03000849010008450A0008000000004D
:1000200000000000000000000000000005070008BC
:100030004D01000800000000ED050008B5080008AB
:100040001B0100081B0100081B0100081B01000820
:100050001B0100081B0100081B0100081B01000810
:100060001B0100081B0100081B0100081B01000800
:100070001B0100081B0100081B0100081B010008F0
:100080001B0100081B0100081B0100081B010008E0
:100090001B0100081B0100081B0100081B010008D0
:1000A0001B0100081B0100081B0100081B010008C0
:1000B0001B0100081B0100081B0100081B010008B0
:1000C0001B0100081B0100081B0100081B010008A0
:1000D0001B0100081B0100081B0100081B01000890
:1000E0001B0100081B0100081B010008DFF80CD0F1
:1000F00000F018F800480047690A000818040020BA
:100100000648804706480047FEE7FEE7FEE7FEE7B1
:10011000FEE7FEE7FEE7FEE7FEE7FEE7B9080008B8
:10012000ED000008064C074D06E0E06840F00103D2
:1001300094E8070098471034AC42F6D3FFF7DAFF93
:100140008C0A0008AC0A000800BFFEE770472DE9E2
:10015000F04102460025002600200023002400274D
:1001600091F803C00CF00F0591F803C00CF0100CCF
:10017000BCF1000F03D091F802C04CEA050591F8DC
:1001800000C0BCF1000F31D0146800202BE04FF00C
:10019000010C0CFA00F3B1F800C00CEA03069E4211
:1001A00020D183004FF00F0C0CFA03F7BC4305FA83
:1001B00003FC4CEA040491F803C0BCF1280F06D1FB
:1001C0004FF0010C0CFA00FCC2F814C00AE091F8E0
:1001D00003C0BCF1480F05D14FF0010C0CFA00FC34
:1001E000C2F810C0401C0828D1D31460B1F800C078
:1001F000BCF1FF0F34DD546800202EE000F1080C44
:100200004FF0010808FA0CF3B1F800C00CEA03063D
:100210009E4221D183004FF00F0C0CFA03F7BC4330
:1002200005FA03FC4CEA040491F803C0BCF1280F62
:1002300005D100F1080C08FA0CF8C2F8148091F806
:1002400003C0BCF1480F07D100F1080C4FF00108C2
:1002500008FA0CF8C2F81080401C0828CED354606D
:10026000BDE8F08100BFFEE770B50246002400251E
:1002700000230020958A138B1B0445EA030626F011
:100280007F4404EA01068E4201D1012000E00020F3
:1002900070BD21B1028842F00102028004E00288B0
:1002A0004FF6FE731A400280704721B1028842F473
:1002B0008072028004E002884FF6FF631A400280D9
:1002C000704721B1028842F40072028004E0028883
:1002D0004FF6FF531A400280704700002DE9F043AB
:1002E00085B004460D460026B1460427DFF8CC80D1
:1002F000A6884FF6C0700640684600F099F9DDF810
:1003000008802F48B8FBF0F01FFA80F946EA09068A
:10031000A68020884FF6FE710840208000262949DB
:10032000286888420CD828684000B8FBF0F087B2F3
:10033000042F00DA04273E4309F10100208427E05E
:10034000E8884BF6FF71884206D1286800EB400030
:10035000B8FBF0F087B209E0286800EBC00101EBC0
:100360000010B8FBF0F087B247F48047C7F30B00EA
:1003700008B947F0010747F4004006434FF4967070
:1003800009FB00F04FF47A7190FBF1F0401C2084DF
:10039000A683208840F00100208026884FF6F530A3
:1003A0000640A8886989084306432680A8892989C8
:1003B0000843208105B0BDE8F083000000127A00F8
:1003C00040420F00A086010012B141F0010102E09D
:1003D0004FF6FE731940018270470182704700BFDB
:1003E000FEE7704770B500240EE00021204600F0C3
:1003F000DEF8002504E0002000F0F1F8681CC5B22A
:10040000802DF8DB601CC4B2082CEEDB70BD000050
:1004100000B585B00121082000F0FAF81C208DF805
:100420001300C020ADF8100003208DF8120004A9BD
:100430001148FFF78CFE0121480500F0D9F84FF470
:100440008060ADF80A000001ADF80C000B48009088
:100450004BF6FF70ADF806000020ADF80400ADF8D3
:10046000080069460648FFF739FF01210448FFF7F5
:1004700010FF05B000BD0000000C0140A086010087
:100480000054004070B504460D4601211948FFF79D
:100490000CFF00BF18491748FFF7E6FE0128F9D105
:1004A000002278211348FFF78FFF00BF134911483E
:1004B000FFF7DAFE0128F9D121460E48FFF78DFF3C
:1004C00000BF0E49891C0B48FFF7CEFE0128F8D16A
:1004D00029460848FFF781FF00BF0849891C0548E5
:1004E000FFF7C2FE0128F8D101210248FFF7E9FE1B
:1004F00070BD0000005400400100030082000700AE
:1005000070B5002406E0002500E06D1CB5F57A7F8B
:10051000FBD3641CB4F57A7FF5D3FFF779FFAE20E7
:1005200000F056F8D52000F053F8802000F050F885
:10053000A82000F04DF83F2000F04AF8D32000F04A
:1005400047F8002000F044F8402000F041F8A120D6
:1005500000F03EF8C82000F03BF8DA2000F038F850
:10056000122000F035F8812000F032F8CF2000F0A2
:100570002FF8D92000F02CF8F12000F029F8DB202A
:1005800000F026F8302000F023F8A42000F020F836
:10059000A62000F01DF88D2000F01AF8142000F0BD
:1005A00017F8AF2000F014F8FFF71CFF70BD70B50E
:1005B00005460C4645F0B00000F00AF8102141EA6B
:1005C000141000F005F804F00F0000F001F870BD01
:1005D00010B5044621460020FFF754FF10BD10B5AA
:1005E000044621464020FFF74DFF10BD7047000034
:1005F00029B1064AD2690243044BDA6104E0034A96
:10060000D2698243014BDA6170470000001002405A
:1006100029B1064A92690243044B9A6104E0034AF5
:1006200092698243014B9A617047000000100240BA
:1006300030B500210022002400232D4D6D6805F007
:100640000C0121B1042905D0082923D105E0294D49
:10065000056022E0274D05601FE0254D6D6805F41B
:100660007012234D6D6805F48034022505EB92422B
:100670001CB9214D554305600BE01D4D6D6805F417
:1006800000351DB11C4D5543056002E0194D554321
:10069000056002E0174D056000BF00BF144D6D6896
:1006A00005F0F0010909154D6B5C0568DD404560FA
:1006B0000F4D6D6805F4E061090A104D6B5C4568EB
:1006C000DD4085600A4D6D6805F46051C90A0B4D27
:1006D0006B5C4568DD40C560054D6D6805F44041C3
:1006E000890B074D6B5CC568B5FBF3F5056130BD43
:1006F0000010024000127A0000093D0000000020B6
:10070000100000207047000000B585B001210420D2
:10071000FFF77EFF01218803FFF77AFF18208DF88D
:1007200013004FF40070ADF8100003208DF8120094
:1007300004A91548FFF70BFD48208DF813004FF46E
:100740008060ADF8100004A90F48FFF700FD68466F
:1007500000F06CF94FF4165000900020ADF80C003A
:100760000820ADF80A000020ADF80800ADF806003A
:10077000ADF804006946054800F0E8F80121034897
:1007800000F0CAF805B000BD000801400038014083
:1007900010B504462146054800F044F900BF802109
:1007A000024800F0C5F80128F9D110BD0038014019
:1007B00070B50446002504E0605DFFF7E9FF681CA2
:1007C000C5B2605D0028F7D170BD10B500F002F829
:1007D00010BD00000CB50020019000903348006867
:1007E00040F480303149086000BF3048006800F4B0
:1007F000003000900198401C0190009818B90198B1
:10080000B0F5A06FF1D12948006800F4003010B1B4
:100810000120009001E0002000900098012843D1C1
:100820002348006840F0100021490860084600682D
:1008300020F0030008600846006840F002000860ED
:100840001A484068194948600846406848600846A8
:10085000406840F4806048600846406820F47C109E
:1008600048600846406840F4E81048600846006860
:1008700040F08070086000BF0C48006800F0007015
:100880000028F9D00948406820F003000749486073
:100890000846406840F00200486000BF03484068D6
:1008A00000F00C000828F9D10CBD00000010024037
:1008B000002002407047000010B51348006840F067
:1008C00001001149086008464068104908400E4977
:1008D0004860084600680E4908400B490860084611
:1008E000006820F4802008600846406820F4FE007C
:1008F00048604FF41F008860FFF767FF4FF000600B
:100900000449086010BD0000001002400000FFF81C
:10091000FFFFF6FE08ED00E021B1828942F40052AB
:10092000828104E082894DF6FF731A40828170470C
:1009300002460020B1F5007F00D100BF13880B40B4
:100940000BB1012000E00020704700002DE9F047C6
:1009500086B005460E460024A24600BFA1460027E9
:10096000B08900B100BF2F462C8A4CF6FF700440BE
:10097000F08804432C82AC894EF6F3100440B08812
:1009800031890843718908430443AC81AC8A4FF62E
:10099000FF400440B0890443AC8201A8FFF748FE41
:1009A0001F48874202D1DDF810A001E0DDF80CA05D
:1009B000A88900F4004040B10AEBCA0000EB0A101D
:1009C00031684900B0FBF1F807E00AEBCA0000EB20
:1009D0000A1031688900B0FBF1F86420B8FBF0F030
:1009E00004012009642101FB1089A88900F400405A
:1009F00040B1322000EBC900B0FBF1F000F007007D
:100A0000044308E0322000EB09106421B0FBF1F050
:100A100000F00F0004432C8106B0BDE8F087000011
:100A200000380140C1F30802828070474FF416512C
:100A3000016000218180C18001810C214181002160
:100A40008181704700BFFEE702E008C8121F08C19D
:100A5000002AFAD170477047002001E001C1121F3F
:100A6000002AFBD170470000FFF74AFDFFF74CFE5C
:100A700002A0FFF79DFE00BFFEE7000048656C6C1A
:100A80006F2C20576F726C6421000000AC0A0008C4
:100A90000000002014000000480A0008C00A0008F6
:100AA0001400002004040000580A000800000000A0
:100AB00001020304010203040607080902040608F0
:04000005080000ED02
:00000001FF
